:100000000C9434000C9449000C9449000C94490061
:100010000C9449000C9449000C9449000C9449003C
:100020000C9449000C9449000C9449000C9449002C
:100030000C9449000C9449000C9449000C9449001C
:100040000C9449000C9449000C9449000C9449000C
:100050000C9449000C9449000C9449000C944900FC
:100060000C9449000C94490011241FBECFEFD4E03A
:10007000DEBFCDBF12E0A0E0B1E0ECE9F2E002C0EB
:1000800005900D92A635B107D9F70E94D4000C94C3
:100090004C010C940000CF93DF93EC0180E091E0E1
:1000A0000E94390180E0C03197E2D90720F08F5FCC
:1000B000C051D742F8CF882319F0805D0E942B01F0
:1000C00080E0C83E93E0D90720F08F5FC85ED34040
:1000D000F8CF805D0E942B018EE20E942B0180E010
:1000E000C436D10520F08F5FC456D109F9CF805DA9
:1000F0000E942B0180E0CA30D10518F08F5F2A974B
:10010000FACF805D0E942B018C2F805D0E942B0115
:100110008CE091E0DF91CF910C943901813D27E093
:10012000920718F088E191E022C0893E23E092070F
:1001300018F084E491E01BC0853F21E0920718F09D
:1001400084E591E014C08B3F910518F083E691E0BF
:100150000EC0893C910518F088E891E008C0863906
:10016000910518F08EE991E002C08DEA91E00C94BF
:1001700039012FE38DE093E0215080409040E1F77A
:1001800000C000008091840090918500282F80E0BD
:1001900090E00196281739F0E3ECF9E03197F1F798
:1001A00000C00000F6CF08950E941A0180918100DE
:1001B0008360809381008FEF84B95A9A8FEB91E02E
:1001C0000E94390183ED91E00E94390185EE91E0B2
:1001D0000E9439011FEF0E9432018FEF91E00E94CF
:1001E00039010E94B9008EE092E00E94390115B9F0
:1001F00010928500109284004A9905C086E192E031
:100200000E94390111C04A99FECFC0918400D0915B
:10021000850084E0D695C7958A95E1F7CE010E94C6
:100220004B00CE010E948E0015B887E392E00E9439
:100230003901D1CF1092C5008CE08093C400E0EC6E
:10024000F0E080818260808388E18093C10086E055
:100250008093C20008959091C00095FFFCCF8093D9
:10026000C60008958091C00087FFFCCF8091C60032
:1002700008951F93CF93DF93EC0110E0FE01E10F8F
:10028000F11D8081882321F00E942B011F5FF6CF92
:0C029000DF91CF911F910895F894FFCFEB
:10029C000D0A596F7520746F6F6B200020736563A6
:1002AC006F6E64732E0D0A002D2D2D2D3E202055C2
:1002BC006D6D6D2E2E2E746869732069732061200C
:1002CC007265616374696F6E2074696D65722E2E30
:1002DC002E0D0A002D2D2D2D3E202048656C6C6FA7
:1002EC003F0D0A002D2D2D2D3E2020536C6F772EA7
:1002FC000D0A002D2D2D2D3E2020486176652061A4
:10030C006E6F7468657220637570206F6620636F02
:10031C00666665652E0D0A002D2D2D2D3E20205272
:10032C0065737065637461626C652E0D0A002D2D0A
:10033C002D2D3E2020466173742E0D0A002D2D2D7F
:10034C002D3E2020416D617A696E67210D0A000DEA
:10035C000A5265616374696F6E2054696D65723AF7
:10036C000D0A002D2D2D2D2D2D2D2D2D2D2D2D2D21
:10037C002D2D0D0A00507265737320616E79206B00
:10038C00657920746F2073746172742E0D0A000DE0
:10039C000A4765742072656164792E2E2E000D0A51
:1003AC00476F210D0A00596F75277265206F6E6CAF
:1003BC0079206368656174696E6720796F757273F3
:1003CC00656C662E0D0A00507265737320616E7930
:1003DC00206B657920746F20747279206167616974
:0603EC006E2E0D0A000058
:00000001FF
