:100000000C9434000C943E000C943E000C943E0082
:100010000C943E000C943E000C943E000C943E0068
:100020000C943E000C943E000C943E000C943E0058
:100030000C943E000C943E000C943E000C943E0048
:100040000C943E000C943E000C943E000C943E0038
:100050000C943E000C943E000C943E000C943E0028
:100060000C943E000C943E0011241FBECFEFD4E050
:10007000DEBFCDBF0E9440000C9451000C940000E4
:1000800084B18FEF84B99AE085B1892785B92FE9CA
:1000900036E881E0215030408040E1F700C00000A8
:0600A000F3CFF894FFCF3E
:00000001FF
