:100000000C9434000C943E000C943E000C943E0082
:100010000C943E000C943E000C943E000C943E0068
:100020000C943E000C943E000C943E000C945A003C
:100030000C943E000C943E000C943E000C943E0048
:100040000C943E000C943E000C943E000C943E0038
:100050000C943E000C943E000C943E000C943E0028
:100060000C943E000C943E0011241FBECFEFD4E050
:10007000DEBFCDBF0E9440000C946C000C940000C9
:1000800084B18FEF84B98091810088608093810072
:1000900080916F00826080936F00789488E09DE388
:1000A0009093890080938800809181008360809381
:1000B0008100FFCF1F920F920FB60F9211248F93E2
:1000C0009F9385B192E0892785B99F918F910F9079
:0C00D0000FBE0F901F901895F894FFCF02
:00000001FF
