:100000000C9434000C9449000C9449000C94490061
:100010000C9449000C9449000C9449000C9449003C
:100020000C9449000C9449000C9449000C9449002C
:100030000C9449000C9449000C9449000C9449001C
:100040000C9449000C9449000C9449000C9449000C
:100050000C9449000C9449000C9449000C944900FC
:100060000C9449000C94490011241FBECFEFD4E03A
:10007000DEBFCDBF11E0A0E0B1E0E8EEF1E002C0EC
:1000800005900D92AA33B107D9F70E944B000C944A
:10009000F2000C94000080918000816080938000C9
:1000A00080918100886080938100809181008260CE
:1000B000809381008091800080688093800080918F
:1000C00080008062809380008091B0008160809386
:1000D000B0008091B00082608093B0008091B10048
:1000E00082608093B1008091B00080688093B000FE
:1000F0000E949B0080E091E00E94BA00219A229A1F
:10010000239A85E191E00E94BA000E94CD002091DF
:100110008A0030918B002093B300209188003091A9
:10012000890030938B0020938A0090E0909389009F
:1001300080938800E6CF1092C5008CE08093C400C5
:10014000E0ECF0E080818260808388E18093C100F0
:1001500086E08093C20008959091C00095FFFCCF87
:100160008093C60008958091C00087FFFCCF8091E6
:10017000C60008951F93CF93DF93EC0110E0FE01BA
:10018000E10FF11D8081882321F00E94AC001F5FE8
:10019000F6CFDF91CF911F9108950F931F93CF93C7
:1001A000DF93D0E3C0E300E30E94B300182F0E9466
:1001B000AC001D3021F00C2FCD2FD12FF5CFD05317
:1001C000005384E6089FD00D11249C2F990F905660
:1001D000892F880F880F890F8D0FDF91CF911F9185
:0801E0000F910895F894FFCF80
:1001E8002D2D204C45442050574D2044656D6F20DF
:1001F8002D2D0D0A000D0A456E7465722028302DCC
:100208003235352920666F722050574D2064757439
:0A02180079206379636C653A2000D9
:00000001FF
