:100000000C9434000C943E000C943E000C943E0082
:100010000C943E000C943E000C943E000C943E0068
:100020000C943E000C943E000C943E000C943E0058
:100030000C943E000C943E000C943E000C943E0048
:100040000C943E000C943E000C943E000C943E0038
:100050000C943E000C943E000C943E000C943E0028
:100060000C943E000C943E0011241FBECFEFD4E050
:10007000DEBFCDBF0E9454000C9495000C9400008C
:1000800090917C00907F982B90937C0080917A00D7
:10009000806480937A0080917A0086FDFCCF809105
:1000A000780090917900089580917C00806480931D
:1000B0007C0080917A00836080937A0080917A003E
:1000C000806880937A008FEF84B90E947D00FF24BE
:1000D000FA9483E00E944000EC0180E00E9440001E
:1000E0008C010E948E008C2F0E948E000C171D0721
:1000F00010F4F5B8EECF15B8ECCF1092C5008CE037
:100100008093C400E0ECF0E080818260808388E12D
:100110008093C10086E08093C20008959091C00052
:0E01200095FFFCCF8093C6000895F894FFCFA2
:00000001FF
