:100000000C9434000C9451000C9451000C94510049
:100010000C945E000C9451000C9451000C9451000F
:100020000C9451000C9451000C9451000C9451000C
:100030000C9451000C9451000C9451000C945100FC
:100040000C9451000C9451000C9451000C945100EC
:100050000C9451000C9451000C9451000C945100DC
:100060000C9451000C94510011241FBECFEFD4E02A
:10007000DEBFCDBF11E0A0E0B1E0EEE5F2E002C0EE
:1000800005900D92A831B107D9F721E0A8E1B1E0C0
:1000900001C01D92AA31B207E1F70E9479000C94C9
:1000A0002D010C940000E8E6F0E0808182608083FE
:1000B000ECE6F0E080818260808308951F920F92C9
:1000C0000FB60F9211248F939F93809118019091F6
:1000D000190101969093190180931801399A000033
:1000E0003998D99A9F918F910F900FBE0F901F90C2
:1000F000189590E080E80FB6F89480936100909393
:1001000061000FBE0E94B30080E091E00E94CB002E
:100110008FEF84B985B7806185BF419A0E945300F3
:10012000CFEF1092190110921801399A789483ED4B
:1001300090E30197F1F700C00000F8948091180156
:1001400090911901843F914010F4C5B901C015B8D0
:1001500080911801909119010E94DE0084E191E0E4
:100160000E94CB00DECF1092C5008CE08093C400CB
:10017000E0ECF0E080818260808388E18093C100C0
:1001800086E08093C20008959091C00095FFFCCF57
:100190008093C60008951F93CF93DF93EC0110E086
:1001A000FE01E10FF11D8081882321F00E94C4002F
:1001B0001F5FF6CFDF91CF911F9108950F931F938B
:1001C000CF93DF93EC0160E177E20E94190180E3B5
:1001D000860F0E94C400CE0168EE73E00E941901F0
:1001E000CB010AE010E0B8010E941901805D0E9475
:1001F000C400CE0164E670E00E941901CB01B80191
:100200000E941901805D0E94C400CE01B8010E94C5
:100210001901C82FCB01B8010E941901805D0E940D
:10022000C40080E38C0FDF91CF911F910F910C944C
:10023000C400AA1BBB1B51E107C0AA1FBB1FA61706
:10024000B70710F0A61BB70B881F991F5A95A9F77F
:0E02500080959095BC01CD010895F894FFCFE4
:10025E003D3D5B204361702053656E736F72205D70
:08026E003D3D0D0A0D0A0000E0
:00000001FF
