:100000000C9434000C9449000C9449000C94490061
:100010000C9449000C9449000C9449000C9449003C
:100020000C9449000C9449000C9449000C9449002C
:100030000C9449000C9449000C9449000C9449001C
:100040000C9449000C9449000C9449000C9449000C
:100050000C9449000C9449000C9449000C944900FC
:100060000C9449000C94490011241FBECFEFD4E03A
:10007000DEBFCDBF11E0A0E0B1E0E2EAF2E002C0F5
:1000800005900D92A239B107D9F70E944B000C944C
:100090004F010C940000CCEDD5E0D0938900C093C3
:1000A0008800809180008260809380008091810030
:1000B00088618093810080918100816080938100BC
:1000C00080E29EE490938700809386008091800078
:1000D000806880938000219A0E941D0180E091E059
:1000E0000E943C018EE191E00E943C01D093890086
:1000F000C09388002FED83E994E021508040904028
:10010000E1F700C0000087E291E00E943C0188EE28
:1001100093E090938900809388002FED83E994E029
:10012000215080409040E1F700C0000087E391E05B
:100130000E943C0180ED97E09093890080938800B5
:100140002FED83E994E0215080409040E1F700C01A
:1001500000008EE191E00E943C018CED95E09093CF
:100160008900809388002FED83E994E0215080403E
:100170009040E1F700C0000008EE13E034E6E32E03
:100180008EE491E00E943C0180E3F82E90E3D92EAA
:1001900020E3C22ED0E30E943501C82F0E942E0119
:1001A000CD3029F0DC2DCD2CDF2CFC2EF4CF8AE0D5
:1001B0000E942E014D2F50E040535109409FE00115
:1001C000419FD00D509FD00D11242C2D30E0205395
:1001D0003109E29EA001E39E500D1124C40FD51FEA
:1001E0008D2D90E0C0974AE0489F9001499F300DC7
:1001F0001124C20FD31FCF0DD11DE09783E791E0EB
:100200000E943C01D0938900C0938800219A2FE37B
:100210008DE093E0215080409040E1F700C0000065
:1002200083E891E00E943C018091840090918500D8
:10023000883B9B40C8F32198A3CF1092C5008CE067
:100240008093C400E0ECF0E080818260808388E1EC
:100250008093C10086E08093C20008959091C00011
:1002600095FFFCCF8093C60008958091C00087FF62
:10027000FCCF8091C60008951F93CF93DF93EC01CC
:1002800010E0FE01E10FF11D8081882321F00E9422
:100290002E011F5FF6CFDF91CF911F910895F89443
:0202A000FFCF8E
:1002A2000D0A57656C636F6D6520746F2074686505
:1002B20020536572766F2044656D6F0D0A004365A9
:1002C2006E7465720D0A00436C6F636B77697365B8
:1002D200204D61780D0A00436F756E746572636C10
:1002E2006F636B77697365204D61780D0A000D0AA3
:1002F200456E746572206120666F75722D64696740
:1003020069742070756C7365206C656E6774683AE9
:100312000D0A004F6E206D79207761792E2E2E2ED8
:100322000D0A0052656C656173696E672E2E2E0D83
:020332000A00BF
:00000001FF
