:100000000C9434000C943E000C943E000C943E0082
:100010000C943E000C943E000C943E000C943E0068
:100020000C943E000C943E000C943E000C943E0058
:100030000C943E000C943E000C943E000C943E0048
:100040000C943E000C943E000C943E000C943E0038
:100050000C943E000C943E000C943E000C943E0028
:100060000C943E000C943E0011241FBECFEFD4E050
:10007000DEBFCDBF0E9440000C9450000C940000E5
:100080008FEF84B915B885B18F5F85B92FE38DE007
:1000900093E0215080409040E1F700C00000F3CF92
:0400A000F894FFCF02
:00000001FF
