:100000000C9434000C9449000C9449000C94490061
:100010000C9449000C9449000C9449000C9449003C
:100020000C9449000C9449000C9449000C9449002C
:100030000C9449000C9449000C9449000C9449001C
:100040000C9449000C9449000C9449000C9449000C
:100050000C9449000C9449000C9449000C944900FC
:100060000C9449000C94490011241FBECFEFD4E03A
:10007000DEBFCDBF12E0A0E0B1E0ECE9F2E002C0EB
:1000800005900D92A635B107D9F70E944B000C944C
:100090004C010C9400000E941A0180918100836041
:1000A000809381008FEF84B95A9A80E091E00E949A
:1000B000390184E191E00E94390186E291E00E94D9
:1000C00039011FEF0E94320180E491E00E94390162
:1000D0000E94FF008FE491E00E94390115B910924F
:1000E0008500109284004A9905C087E591E00E943E
:1000F000390111C04A99FECFC0918400D09185008A
:1001000084E0D695C7958A95E1F7CE010E949100CB
:10011000CE010E94D40015B888E791E00E94390111
:10012000D1CFCF93DF93EC0186E991E00E943901B2
:1001300080E0C03197E2D90720F08F5FC051D742ED
:10014000F8CF882319F0805D0E942B0180E0C83E23
:1001500093E0D90720F08F5FC85ED340F8CF805D71
:100160000E942B018EE20E942B0180E0C436D10553
:1001700020F08F5FC456D109F9CF805D0E942B011A
:1001800080E0CA30D10518F08F5F2A97FACF805DE2
:100190000E942B018C2F805D0E942B0182EA91E04E
:1001A000DF91CF910C943901813D27E0920718F03F
:1001B0008EEA91E022C0893E23E0920718F08AED92
:1001C00091E01BC0853F21E0920718F08AEE91E094
:1001D00014C08B3F910518F089EF91E00EC0893C67
:1001E000910518F08EE192E008C08639910518F06B
:1001F00084E392E002C083E492E00C9439012FE39F
:100200008DE093E0215080409040E1F700C0000075
:100210008091840090918500282F80E090E00196E5
:10022000281739F0E3ECF9E03197F1F700C000004E
:10023000F6CF08951092C5008CE08093C400E0ECE6
:10024000F0E080818260808388E18093C10086E055
:100250008093C20008959091C00095FFFCCF8093D9
:10026000C60008958091C00087FFFCCF8091C60032
:1002700008950F931F93CF938C01C0E0F801EC0F0A
:10028000F11D8081882321F00E942B01CF5FF6CFE2
:0C029000CF911F910F910895F894FFCFBB
:10029C000D0A5265616374696F6E2054696D6572E5
:1002AC003A0D0A002D2D2D2D2D2D2D2D2D2D2D2DD5
:1002BC002D2D2D0D0A00507265737320616E7920FF
:1002CC006B657920746F2073746172742E0D0A0043
:1002DC000D0A4765742072656164792E2E2E000D0F
:1002EC000A476F210D0A00596F75277265206F6ED2
:1002FC006C79206368656174696E6720796F7572BB
:10030C0073656C662E0D0A00507265737320616EF6
:10031C0079206B657920746F207472792061676124
:10032C00696E2E0D0A000D0A596F7520746F6F6B74
:10033C002000207365636F6E64732E0D0A002D2DE3
:10034C002D2D3E2020556D6D6D2E2E2E74686973EB
:10035C002069732061207265616374696F6E20740B
:10036C00696D65722E2E2E0D0A002D2D2D2D3E2021
:10037C002048656C6C6F3F0D0A002D2D2D2D3E20F5
:10038C0020536C6F772E0D0A002D2D2D2D3E202025
:10039C004861766520616E6F746865722063757054
:1003AC00206F6620636F666665652E0D0A002D2D25
:1003BC002D2D3E20205265737065637461626C65EF
:1003CC002E0D0A002D2D2D2D3E2020466173742EEE
:1003DC000D0A002D2D2D2D3E2020416D617A696E68
:0603EC0067210D0A00006C
:00000001FF
