:100000000C9434000C943E000C943E000C943E0082
:100010000C943E000C943E000C943E000C943E0068
:100020000C943E000C943E000C943E000C94510045
:100030000C943E000C943E000C943E000C943E0048
:100040000C943E000C943E000C943E000C943E0038
:100050000C943E000C943E000C943E000C943E0028
:100060000C943E000C943E0011241FBECFEFD4E050
:10007000DEBFCDBF0E9463000C94DB000C94000037
:100080009093890080938800789489EF90E001979D
:10009000F1F700C0000061507109B9F7F894559A62
:1000A00008951F920F920FB60F9211248F939F9372
:1000B0008AB190E289278AB99F918F910F900FBEE4
:1000C0000F901F90189590E080E80FB6F8948093F9
:1000D0006100909361000FBE84B5826084BD84B5D9
:1000E000806184BD85B5816085BD83E087BD8091D9
:1000F000810088608093810080918100826080937C
:10010000810080916F00826080936F0068EC70E0E6
:1001100080EE93E00E94400087EA91E60197F1F7B4
:1001200000C0000068EC70E080EE93E00E944000A8
:100130008FE493EC0197F1F700C0000068EC70E0E9
:1001400080EE93E00E9440008FE493EC0197F1F77A
:1001500000C0000068EC70E082EE94E00E94400075
:1001600068EC70E080EE93E00E9440008FE493EC36
:100170000197F1F700C0000060E971E082E493E0CC
:100180000E9440009FE926E881E091502040804095
:10019000E1F700C0000064EF71E085E896E00E949E
:1001A00040009FE121EA87E0915020408040E1F744
:0A01B00000C00000ABCFF894FFCFB1
:00000001FF
