:100000000C9434000C943E000C943E000C943E0082
:100010000C943E000C943E000C943E000C943E0068
:100020000C943E000C943E000C943E000C943E0058
:100030000C943E000C943E000C943E000C943E0048
:100040000C943E000C943E000C943E000C943E0038
:100050000C943E000C943E000C943E000C943E0028
:100060000C943E000C943E0011241FBECFEFD4E050
:10007000DEBFCDBF0E9440000C94E4000C94000051
:100080008FEF84B944E352E181E090E065E078E0ED
:1000900020E030E0A5B1FC01022E01C0EE0F0A9471
:1000A000EAF7AE2BA5B9AFE9B6E8E1E0A150B04060
:1000B000E040E1F700C000002F5F3F4F28303105DE
:1000C00049F720E030E0A5B1FC01022E01C0EE0F9F
:1000D0000A94EAF7E095EA23E5B9FFE9A6E8B1E07A
:1000E000F150A040B040E1F700C000002F5F3F4F4B
:1000F0002830310541F7EFE1F1EA27E0E150F04027
:100100002040E1F700C00000E7E0F5B19C010E2EB1
:1001100001C0220F0A94EAF7F22BF5B93FE9A6E8ED
:10012000B1E03150A040B040E1F700C00000E15024
:1001300060F7E7E0F5B19C010E2E01C0220F0A9492
:10014000EAF720952F2325B9FFE926E831E0F150A1
:1001500020403040E1F700C00000E15058F7AFE127
:10016000B1EAE7E0A150B040E040E1F700C0000094
:10017000EBE4469F9001479F300D569F300D1124B0
:10018000A901475E594CF5B1252F2770DC0102C04B
:10019000AA0FBB1F2A95E2F7FA27F5B9BFE9F6E8DF
:1001A00021E0B150F0402040E1F700C00000E150F4
:1001B00001F715B83FE1A1EAB7E03150A040B040E7
:0C01C000E1F700C0000064CFF894FFCF0E
:00000001FF
