:100000000C9434000C9449000C9449000C94490061
:100010000C9449000C9449000C9449000C9449003C
:100020000C9449000C9449000C9449000C9449002C
:100030000C9449000C9449000C9449000C9449001C
:100040000C9449000C9449000C9449000C9449000C
:100050000C9449000C9449000C9449000C944900FC
:100060000C9449000C94490011241FBECFEFD4E03A
:10007000DEBFCDBF12E0A0E0B1E0E6E4F1E002C0F7
:1000800005900D92A030B107D9F70E944B000C9457
:10009000A1000C940000CF93DF93CDB7DEB7289773
:1000A0000FB6F894DEBF0FBECDBF90E080E80FB66C
:1000B000F89480936100909361000FBE84B58160D5
:1000C00084BD84B5826084BD84B5806884BD569A41
:1000D00085B5816085BD569A209A1A8219821C8244
:1000E0001B821E821D8218861F8220E030E0A89BA2
:1000F000FECF205827BDA89AFE01319680E090E0FF
:1001000020E030E04081518144525F4F652F7727D6
:100110006115710511F4480F591F51834083DB01AC
:10012000A050BF4F4C91240F311D47FD3A95329698
:1001300007968C31910531F735952795359527959B
:06014000D6CFF894FFCFBA
:1001460000010304050607070707070708090A0C45
:100156000D0F111214151516161616161617181950
:100166001B1D1F212223242424242424242526275E
:10017600292B2D2F30323333333333333333343566
:1001860036383A3D3F404242434242414141414274
:100196004446484B4D4F5152525251504F4E4E4E7F
:1001A600505255585C5F61636463625F5D5A58588C
:1001B600595B60656C73797D7F7D776C5D4A331A18
:1001C60000E5CCB5A29388828082868C939A9FA400
:1001D600A6A7A7A5A2A09D9C9B9C9EA0A3A7AAADEF
:1001E600AFB1B1B1B0AFAEADADADAEB0B2B4B7B9FF
:1001F600BBBDBEBEBEBEBDBDBCBDBDBFC0C2C5C70C
:10020600C9CACBCCCCCCCCCCCCCCCCCDCFD0D2D418
:10021600D6D8D9DADBDBDBDBDBDBDBDCDDDEE0E221
:10022600E4E6E7E8E9E9E9E9E9E9EAEAEBEDEEF02F
:10023600F2F3F5F6F7F8F8F8F8F8F8F9FAFBFCFE39
:00000001FF
