:100000000C9434000C943E000C943E000C943E0082
:100010000C943E000C943E000C943E000C943E0068
:100020000C943E000C943E000C943E000C943E0058
:100030000C943E000C943E000C943E000C943E0048
:100040000C943E000C943E000C943E000C943E0038
:100050000C943E000C943E000C943E000C943E0028
:100060000C943E000C943E0011241FBECFEFD4E050
:10007000DEBFCDBF0E9451000C9463000C940000C1
:100080004A990DC081EE94E00197F1F700C000009D
:1000900089B182FB882780F991E08927089580E063
:1000A00008955A9A84B18FEF84B915B8C0E00E94C0
:1000B00040008823D9F3CC2311F0C1E0F8CF85B1FB
:0A00C0008F5F85B9FACFF894FFCFE7
:00000001FF
