:100000000C9434000C943E000C943E000C943E0082
:100010000C943E000C943E000C943E000C943E0068
:100020000C943E000C943E000C943E000C943E0058
:100030000C943E000C943E000C943E000C943E0048
:100040000C943E000C943E000C943E000C943E0038
:100050000C943E000C943E000C943E000C943E0028
:100060000C943E000C943E0011241FBECFEFD4E050
:10007000DEBFCDBF0E9440000C9486000C940000AF
:100080008FEF84B981E892E424E238E185B9E3EFA7
:10009000F1E03197F1F700C0000095B9E3EFF1E02E
:1000A0003197F1F700C0000025B9E3EFF1E0319797
:1000B000F1F700C0000035B9E3EFF1E03197F1F757
:1000C00000C0000035B9E3EFF1E03197F1F700C06F
:1000D000000025B9E3EFF1E03197F1F700C000002F
:1000E00095B9E3EFF1E03197F1F700C0000085B971
:1000F000E3EFF1E03197F1F700C0000015B8E3EC51
:10010000F9E03197F1F700C00000C0CFF894FFCFBD
:00000001FF
