:100000000C9468000C9472000C9472000C947200B2
:100010000C9472000C9472000C9472000C94720098
:100020000C9472000C9472000C9472000C94720088
:100030000C9472000C9472000C9472000C94720078
:100040000C9472000C9472000C9472000C94720068
:100050000C9472000C9472000C9472000C94720058
:100060000C9472000C94720039300D0A48692074A7
:10007000686572652C207468697320697320616EED
:10008000206578616D706C65206F662061206C6FF3
:100090006E6720737472696E672E0D0A546865204E
:1000A0006B696E64207468617420796F7520776F56
:1000B000756C646E27742077616E7420746F207382
:1000C000746F726520696E2052414D2E0D0A00003A
:1000D00011241FBECFEFD4E0DEBFCDBF0E9474005D
:1000E0000C940D010C9400000E94A6008AE690E09A
:1000F00015E6180F88E6E82E80E0F82ECAE6D0E074
:10010000FE0184910E94B70087EA91E60197F1F71A
:1001100000C0000021961C13F3CFEFE3FDE023E0C5
:10012000E150F0402040E1F700C0000088E690E098
:100130000E94BE008DE00E94B7008AE00E94B700D6
:10014000F701859194910E94BE00D8CF1092C5000E
:100150008CE08093C400E0ECF0E0808182608083DA
:1001600088E18093C10086E08093C2000895909159
:10017000C00095FFFCCF8093C60008950F931F9396
:10018000CF93DF93EC0160E177E20E94F90080E316
:10019000860F0E94B700CE0168EE73E00E94F9005E
:1001A000CB010AE010E0B8010E94F900805D0E94D6
:1001B000B700CE0164E670E00E94F900CB01B801FF
:1001C0000E94F900805D0E94B700CE01B8010E9434
:1001D000F900C82FCB01B8010E94F900805D0E9490
:1001E000B70080E38C0FDF91CF911F910F910C949A
:1001F000B700AA1BBB1B51E107C0AA1FBB1FA61754
:10020000B70710F0A61BB70B881F991F5A95A9F7BF
:0E02100080959095BC01CD010895F894FFCF24
:00000001FF
