:100000000C9434000C943E000C943E000C943E0082
:100010000C943E000C943E000C943E000C943E0068
:100020000C943E000C943E000C943E000C9467002F
:100030000C943E000C943E000C943E000C943E0048
:100040000C943E000C943E000C943E000C943E0038
:100050000C943E000C943E000C943E000C943E0028
:100060000C943E000C943E0011241FBECFEFD4E050
:10007000DEBFCDBF0E9440000C9479000C940000BC
:10008000F8948091810083608093810084E89EE1F0
:10009000909389008093880080918100886080938C
:1000A000810080916F00826080936F008FEF84B930
:1000B000789492E085B1892785B92FE33DE083E00C
:1000C000215030408040E1F700C00000F3CF1F9284
:1000D0000F920FB60F9211248F939F9385B198E0E2
:1000E000892785B99F918F910F900FBE0F901F9018
:0600F0001895F894FFCF03
:00000001FF
