:100000000C9434000C943E000C943E000C943E0082
:100010000C943E000C943E000C943E000C943E0068
:100020000C943E000C943E000C943E000C943E0058
:100030000C943E000C9455000C943E000C943E0031
:100040000C943E000C943E000C943E000C943E0038
:100050000C943E000C943E000C943E000C943E0028
:100060000C943E000C943E0011241FBECFEFD4E050
:10007000DEBFCDBF0E9440000C946D000C940000C8
:1000800084B18FEF84B980916F00816080936F009D
:1000900078948091810083608093810086EF92EC58
:1000A0009093850080938400FFCF1F920F920FB62C
:1000B0000F9211248F939F9385B192E0892785B980
:1000C00086EF92EC90938500809384009F918F91AE
:0E00D0000F900FBE0F901F901895F894FFCF61
:00000001FF
