:100000000C945D000C9485000C9485000C94850084
:100010000C9485000C9485000C9485000C9485004C
:100020000C9485000C9485000C9485000C9485003C
:100030000C9485000C9485000C9485000C9485002C
:100040000C94C8030C9485000C9496030C947003D4
:100050000C9485000C9485000C9485000C9485000C
:100060000C9485000C94850000000008000201003B
:100070000003040700000000000000000000000072
:10008000250028002B0000000000240027002A0083
:10009000040404040404040402020202020203032E
:1000A0000303030301020408102040800102040836
:1000B0001020010204081020120411241FBECFEFEB
:1000C000D8E0DEBFCDBF22E0A8E4B1E001C01D92C0
:1000D000AE33B207E1F711E0A0E0B1E0E2E2FEE00A
:1000E00002C005900D92A834B107D9F710E0CDE514
:1000F000D0E004C02197FE010E940407CC35D1074F
:10010000C9F70E9451040C940F070C940000E9E514
:10011000F1E0A089B18982E08C93A485B5851C9219
:10012000A685B7858FEC8C93108EA489B58986E05F
:100130008C93A289B3898C9180618C93A289B389B5
:100140008C9188608C93A289B3898C9180688C9300
:100150000288F389E02D80818F7D80830895CF927E
:10016000DF92EF92FF920F931F93CF93DF936C0177
:100170007A018B01C0E0D0E0CE15DF0589F0D8010F
:100180006D918D01D601ED91FC910190F081E02DF2
:10019000C6010995892B11F47E0102C02196ECCF8E
:1001A000C701DF91CF911F910F91FF90EF90DF90EA
:1001B000CF900895089580E090E00895FC01538D5C
:1001C000448D252F30E0842F90E0821B930B541731
:1001D00010F0CF96089501970895FC01918D828DBE
:1001E000981761F0828DDF01A80FB11D5D968C918B
:1001F000928D9F5F9F73928F90E008958FEF9FEF96
:100200000895FC01918D828D981731F0828DE80F51
:10021000F11D858D90E008958FEF9FEF0895FC010B
:10022000918D228D892F90E0805C9F4F821B9109D8
:100230008F739927089589E591E00E940F0121E0CD
:10024000892B09F420E0822F0895FC01848DDF01C1
:10025000A80FB11DA35ABF4F2C91848D90E0019639
:100260008F739927848FA689B7892C93A089B18928
:100270008C9180648C93938D848D981306C0028832
:10028000F389E02D80818F7D80830895EF92FF9226
:100290000F931F93CF93DF93EC0181E0888F9B8DA9
:1002A0008C8D981305C0E889F989808185FD24C06B
:1002B000F62E0B8D10E00F5F1F4F0F731127E02EEE
:1002C0008C8DE8120CC00FB607FCFACFE889F989CB
:1002D000808185FFF5CFCE010E942501F1CF8B8D66
:1002E000FE01E80FF11DE35AFF4FF0820B8FEA8900
:1002F000FB898081806207C0EE89FF896083E8897D
:10030000F98980818064808381E090E0DF91CF91E2
:100310001F910F91FF90EF900895CF93DF93EC0121
:10032000888D8823C9F0EA89FB89808185FD05C015
:10033000A889B9898C9186FD0FC00FB607FCF5CF4F
:10034000808185FFF2CFA889B9898C9185FFEDCF97
:10035000CE010E942501E7CFDF91CF91089580E083
:1003600090E0892B29F00E941B0181110C94000060
:10037000089590E0FC01E859FF4F3491FC01EC55E1
:10038000FF4F2491FC01E057FF4FE491EE2309F465
:100390003BC0332339F1333091F038F43130A9F0D8
:1003A000323001F584B58F7D12C0373091F038308E
:1003B000A1F03430B9F4809180008F7D03C080912A
:1003C00080008F77809380000DC084B58F7784BDC7
:1003D00009C08091B0008F7703C08091B0008F7DFD
:1003E0008093B000F0E0EE0FFF1FE458FF4FA5919F
:1003F000B4918FB7F894EC91611103C020952E232E
:1004000001C02E2B2C938FBF08953FB7F894809195
:100410004D0190914E01A0914F01B091500126B530
:10042000A89B05C02F3F19F00196A11DB11D3FBF2C
:10043000BA2FA92F982F8827820F911DA11DB11DBA
:10044000BC01CD0142E0660F771F881F991F4A95B6
:10045000D1F708958F929F92AF92BF92CF92DF9281
:10046000EF92FF926B017C010E9405024B015C013F
:10047000C114D104E104F104F1F00E940502DC0191
:10048000CB0188199909AA09BB09883E9340A105A7
:10049000B10570F321E0C21AD108E108F10888EE35
:1004A000880E83E0981EA11CB11CC114D104E10484
:1004B000F10419F7DDCFFF90EF90DF90CF90BF9060
:1004C000AF909F908F9008952FB7F8946091490155
:1004D00070914A0180914B0190914C012FBF08957A
:1004E0008F929F92AF92BF92CF92DF92EF92FF9244
:1004F0006B017C010E9464024B015C01C60ED71E99
:10050000E81EF91E0E946402681579058A059B059C
:1005100028F0C616D706E806F906A0F7FF90EF9078
:10052000DF90CF90BF90AF909F908F9008950E94E2
:100530000A076115710579F0FB0101900020E9F7C8
:100540003197AF01461B570BDC01ED91FC91028006
:10055000F381E02D099480E090E00895CF93DF933C
:10056000C0913802D091390262E171E0CE010E945F
:10057000990263E471E0CE01DF91CF910C9499026E
:100580004F925F926F927F92EF92FF920F931F9321
:10059000CF93DF93CDB7DEB7A1970FB6F894DEBF48
:1005A0000FBECDBF7C01FA01CB0119A2223008F4A5
:1005B0002AE08E010F5D1F4F422E512C612C712CB1
:1005C000BF01A30192010E94E206F901CA01015094
:1005D00011096A3014F4605D01C0695CD8016C9344
:1005E000232B242B252B61F7B801C7010E94990208
:1005F000A1960FB6F894DEBF0FBECDBFDF91CF91AD
:100600001F910F91FF90EF907F906F905F904F90B0
:1006100008950C949902BF92CF92DF92EF92FF92CD
:100620000F931F93CF93DF93B82E0E9464026B0148
:100630007C0106EF11E0C8E3D2E069E171E0888156
:1006400099810E9409034B2D50E060E070E02AE0A0
:10065000888199810E94C00260E271E0888199815D
:100660000E9409032AE0B701A601888199810E94AE
:10067000C00262E271E0888199810E940903F80159
:1006800086819781A085B185B701A601481B590BCA
:100690006A0B7B0B2AE0888199810E94C00262E28A
:1006A00071E0888199810E940903F8014681578190
:1006B0006085718582859385A485B585481B590B16
:1006C0006A0B7B0B2AE088819981DF91CF911F9182
:1006D0000F91FF90EF90DF90CF90BF900C94C002ED
:1006E0001F920F920FB60F9211242F933F934F93A7
:1006F0005F936F937F938F939F93AF93BF93EF938A
:10070000FF9389E591E00E942501FF91EF91BF9150
:10071000AF919F918F917F916F915F914F913F9199
:100720002F910F900FBE0F901F9018951F920F9250
:100730000FB60F9211242F938F939F93EF93FF93F4
:10074000E0916901F0916A018081E0916F01F0917F
:10075000700182FD12C09081809172018F5F8F7352
:1007600020917301821751F0E0917201F0E0E75A95
:10077000FE4F958F8093720101C08081FF91EF91B0
:100780009F918F912F910F900FBE0F901F901895F2
:100790001F920F920FB60F9211242F933F938F93B6
:1007A0009F93AF93BF938091490190914A01A0918B
:1007B0004B01B0914C013091480123E0230F2D37BC
:1007C00020F40196A11DB11D05C026E8230F029655
:1007D000A11DB11D209348018093490190934A01C6
:1007E000A0934B01B0934C0180914D0190914E012B
:1007F000A0914F01B09150010196A11DB11D8093B0
:100800004D0190934E01A0934F01B0935001BF91C1
:10081000AF919F918F913F912F910F900FBE0F90AD
:100820001F901895E9E5F1E01382128288EE93E0BB
:10083000A0E0B0E084839583A683B78384E091E051
:100840009183808385EC90E09587848784EC90E0A9
:100850009787868780EC90E0918B808B81EC90E08D
:10086000938B828B82EC90E0958B848B86EC90E06E
:10087000978B868B118E128E138E148EE6EFF1E01D
:1008800016821782108611861286138614861586A4
:1008900016861786108A118A128A138A148A158A74
:1008A0000895789484B5826084BD84B5816084BDE8
:1008B00085B5826085BD85B5816085BD80916E00FE
:1008C000816080936E00109281008091810082602F
:1008D000809381008091810081608093810080916C
:1008E00080008160809380008091B100846080935B
:1008F000B1008091B00081608093B00080917A0057
:10090000846080937A0080917A00826080937A007C
:1009100080917A00816080937A0080917A0080686B
:1009200080937A001092C10010923A0210923B021A
:1009300010923C0210923D021092F8011092F901BF
:100940001092FA011092FB0168EB7BE080E090E0EE
:100950000E94700289E591E09093390280933802F9
:100960000E9487000E9464026093F8017093F9016D
:100970008093FA019093FB0164E271E08091380268
:10098000909139020E9409036AE070E080E090E0F3
:100990000E94700281E080930C0284EF91E0A0E05D
:1009A000B0E08093040290930502A0930602B093F6
:1009B0000702109208021092090210920A02109285
:1009C0000B028091FC019091FD01A091FE01B0917C
:1009D000FF018093000290930102A0930202B09362
:1009E00003020E9464026093FC017093FD018093F6
:1009F000FE019093FF0162E070E080E090E00E94D1
:100A000070026AE070E080E090E00E94700285E68B
:100A100080930D0241E2C42ED12CE12CF12C809167
:100A20000D02833609F4CDC0853609F057C0809198
:100A3000080290910902A0910A02B0910B0201965E
:100A4000A11DB11D8093080290930902A0930A0290
:100A5000B0930B024091040250910502609106028E
:100A600070910702452B462B472B21F4892B8A2BAB
:100A70008B2BA1F50E9464028090F8019090F901FF
:100A8000A090FA01B090FB01DC01CB018819990913
:100A9000AA09BB0981329105A105B10550F4A7014E
:100AA0009601281B390B4A0B5B0BCA01B9010E9446
:100AB00070020E9464026093F8017093F9018093C0
:100AC000FA019093FB0182E00E940B030E94AE02A8
:100AD00064EF71E080E090E00E9470026AE070E0F4
:100AE00080E090E00E94700280910C02882309F45B
:100AF00064C08091380290913902DC01ED91FC9143
:100B00000084F185E02D0995811117C085E656C056
:100B10008091380290913902DC01ED91FC910284C0
:100B2000F385E02D0995883609F447C0A0F0813798
:100B300009F443C0863709F441C08091380290918E
:100B40003902DC01ED91FC910084F185E02D0995DD
:100B50008111DECFDBCF883571F1833671F70E94CA
:100B600064026093F8017093F9018093FA01909305
:100B7000FB0166E371E080913802909139020E9496
:100B800009032AE042E050E060E070E08091380222
:100B9000909139020E94C0026DE371E080913802A9
:100BA000909139020E94090362E370E080E090E0D6
:100BB0000E94700202C010920C0283E680930D0224
:100BC0002ECF0E9464026093FC017093FD0180931C
:100BD000FE019093FF01EEEAF0E02491EAE9F0E0F3
:100BE0008491882399F090E0880F991FFC01EA57BF
:100BF000FF4FA591B491FC01E458FF4F859194916A
:100C00008FB7F894EC91E22BEC938FBF0E94870092
:100C100094EF892E99249394A12CB12C0E94640204
:100C2000672B682B692B41F40E94640262307105C6
:100C30008105910508F49AC00E94640260935501F1
:100C4000709356018093570190935801C0905101C1
:100C5000D0905201E0905301F09054016C157D0545
:100C60008E059F0540F4609351017093520180936B
:100C7000530190935401C0905101D0905201E090E3
:100C80005301F09054019B01AC012C193D094E0910
:100C90005F0969017A013AEFC316D104E104F10456
:100CA00008F464C060935101709352018093530122
:100CB000909354018092040290920502A092060241
:100CC000B0920702109208021092090210920A02D2
:100CD00010920B028091FC019091FD01A091FE0108
:100CE000B091FF018093000290930102A093020251
:100CF000B09303020E9464026093FC017093FD01B3
:100D00008093FE019093FF010E9464026093F801BA
:100D10007093F9018093FA019093FB0181E00E94A6
:100D20000B0366E471E080913802909139020E94D1
:100D300009030E946402AB01BC012AE080913802E1
:100D4000909139020E94C0020E94AE0262E070E0FF
:100D500080E090E00E9470020E9464026093FC01B7
:100D60007093FD018093FE019093FF0188EEC82EE1
:100D700083E0D82EE12CF12C2AE0B701A60189E509
:100D800091E00E94C00263E471E089E591E00E9475
:100D9000990261E08AE00E94B901C701B6010E9490
:100DA0002A0260E08AE00E94B901C701B6010E94F0
:100DB0002A0241E0C41AD108E108F108E9F60E94CC
:100DC000AF012CCFA1E21A2EAA1BBB1BFD010DC047
:100DD000AA1FBB1FEE1FFF1FA217B307E407F507EB
:100DE00020F0A21BB30BE40BF50B661F771F881FC7
:100DF000991F1A9469F760957095809590959B015D
:100E0000AC01BD01CF010895EE0FFF1F0590F491D5
:100E1000E02D099481E090E0F8940C940F07F89489
:020E2000FFCF02
:100E2200000000004601AF00DE008D010F01ED0061
:100E320001015F564D44504500564D4450455F00F8
:100E42003A323A00564D4450565F317C315F564D2E
:100E52004450560D0A00564D4450435F005F564DB4
:080E62004450430D0A007C001E
:00000001FF
