:100000000C9434000C9449000C9449000C94490061
:100010000C9449000C9449000C9449000C9449003C
:100020000C9449000C9449000C9449000C9449002C
:100030000C9449000C9449000C9449000C9449001C
:100040000C9449000C9449000C9449000C9449000C
:100050000C9449000C9449000C9449000C944900FC
:100060000C9449000C94490011241FBECFEFD4E03A
:10007000DEBFCDBF11E0A0E0B1E0E8EDF1E002C0ED
:1000800005900D92A235B107D9F70E944B000C9450
:10009000EA000C940000CF93DF93CDB7DEB7E7976B
:1000A0000FB6F894DEBF0FBECDBF569A0E94B800BF
:1000B00086E391E00E94D70082E1E0E0F1E0DE011A
:1000C000959601900D928A95E1F784E2E2E1F1E0E4
:1000D000DE01119601900D928A95E1F700E018E794
:1000E0000E94D000982F8EE49FAB0E94C900FE01B1
:1000F000B59620E030E09FA9819198130FC0F901D7
:10010000EE0FFF1F81E090E08C0F9D1FE80FF91F9D
:10011000B801808191810E949E00E2CF2F5F3F4F06
:100120002231310549F79B35C9F29D3519F400E0BC
:1001300010EFD6CFC8010E94B400D2CF40E050E00B
:10014000E0E44617570778F420E030E02817390735
:1001500021F000002F5F3F4FF9CF2BB12E272BB995
:10016000480F591FEECF089500000197E9F7089551
:100170001092C5008CE08093C400E0ECF0E0808138
:100180008260808388E18093C10086E08093C20012
:1001900008959091C00095FFFCCF8093C60008950C
:1001A0008091C00087FFFCCF8091C60008951F9307
:1001B000CF93DF93EC0110E0FE01E10FF11D808190
:1001C000882321F00E94C9001F5FF6CFDF91CF91F5
:0801D0001F910895F894FFCF80
:1001D800617773656466746779686A696B6F6C7058
:1001E8003B271304D803A1036D033B030D03E1026E
:1001F800B80291026C02490228020902EC01D001FE
:10020800B6019E0186012D2D2D2D2D205365726975
:10021800616C204F7267616E202D2D2D2D2D2D0DB7
:020228000A00CA
:00000001FF
